:020000040800F2
:1000000000000220010A0008FD090008354500082B
:10001000FD090008FD090008FD09000800000000B6
:10002000000000000000000000000000FD090008C2
:10003000FD09000800000000FD090008B94400089F
:10004000FD090008FD090008FD090008FD09000878
:10005000FD090008FD090008FD090008FD09000868
:10006000FD090008FD090008FD090008C14000085D
:10007000CD400008212E0008D9400008E5400008C6
:10008000BDF80008ED350008FD090008FD0900086D
:10009000FD090008FD090008FD090008FD09000828
:1000A000FD090008FD090008FD090008FD09000818
:1000B000D5EC0008E1EC0008EDEC00082136000862
:1000C000FD0900082D360008FD09000845E5000877
:1000D00051E50008F1F600081DF7000851F7000887
:1000E000FD090008FD09000800000000FD090008E6
:1000F000FD090008FD090008FD090008FD090008C8
:10010000FD090008FD090008F9EC00085DE500089C
:1001100085F70008B9F70008FD090008FD09000887
:10012000FD090008FD09000881E50008B5E50008A3
:10013000F1F80008FD090008FD090008FD090008A4
:1001400000000000000000000000000000000000AF
:10015000FD090008FD090008FD090008EDF7000889
:1001600039360008FD090008C9440008ED440008BC
:10017000FD09000811450008FD090008FD090008F7
:10018000FD090008FD09000821F8000855F80008DD
:1001900069E5000875E50008FD090008FD0900088B
:1001A000FD090008FD090008FD090008FD09000817
:1001B000E13D0008FD090008FD090008FD090008EF
:1001C000FD090008FD090008DD280008E9280008ED
:1001D000FD090008F5280008FD090008FD090008D0
:1001E000FD090008FD090008FD090008FD090008D7
:1001F000FD090008FD090008FD090008FD090008C7
:10020000FD090008FD090008FD090008FD090008B6
:10021000FD090008FD090008FD090008FD090008A6
:10022000FD090008FD090008FD09000800000000A4
:10023000FD090008FD09000800000000FD09000894
:10024000FD090008FD090008FD090008FD09000876
:10025000FD090008FD090008FD090008FD09000866
:10026000FD090008FD090008FD090008FD09000856
:10027000FD090008FD09000889F8000800000000D9
:10028000FD090008FD090008FD0900080000000044
:0802900000000000FD09000858
:1002A00010B5054C237833B9044B13B10448AFF3B0
:1002B00000800123237010BD080600240000000008
:1002C0008054010808B5034B1BB103490348AFF341
:1002D000008008BD000000000C06002480540108C6
:1002E00001F0FF01102A2BDB10F0070F08D010F8E7
:1002F000013B013A8B422DD010F0070F42B3F6D1EB
:10030000F0B441EA012141EA014122F007047FF003
:1003100000070023F0E80256083C85EA010586EA5A
:10032000010685FA47F5A3FA87F586FA47F6A5FA96
:1003300087F68EB9EED1F0BC01F0FF0102F00702A2
:1003400032B110F8013B013A83EA010313B1F8D14D
:100350000020704701387047002D06BF354603382E
:10036000073815F0010F07D1013015F4807F02BF67
:10037000013015F4C03F0130F0BC0138704700BFB8
:1003800081F0004102E000BF83F0004330B54FEA46
:1003900041044FEA430594EA050F08BF90EA020FB3
:1003A0001FBF54EA000C55EA020C7FEA645C7FEA46
:1003B000655C00F0E2804FEA5454D4EB5555B8BF69
:1003C0006D420CDD2C4480EA020281EA030382EADA
:1003D000000083EA010180EA020281EA0303362D6C
:1003E00088BF30BD11F0004F4FEA01314FF4801C3F
:1003F0004CEA113102D0404261EB410113F0004F51
:100400004FEA03334CEA133302D0524263EB430307
:1004100094EA050F00F0A780A4F10104D5F1200EA5
:100420000DDB02FA0EFC22FA05F2801841F1000100
:1004300003FA0EF2801843FA05F359410EE0A5F1D4
:1004400020050EF1200E012A03FA0EFC28BF4CF005
:10045000020C43FA05F3C01851EBE37101F00045BB
:1004600007D54FF0000EDCF1000C7EEB00006EEBC8
:100470000101B1F5801F1BD3B1F5001F0CD3490852
:100480005FEA30004FEA3C0C04F101044FEA4452A9
:1004900012F5800F80F09A80BCF1004F08BF5FEA30
:1004A000500C50F1000041EB045141EA050130BD10
:1004B0005FEA4C0C404141EB0101013C28BFB1F522
:1004C000801FE9D291F0000F04BF01460020B1FA6D
:1004D00081F308BF2033A3F10B03B3F120020CDA40
:1004E0000C3208DD02F1140CC2F10C0201FA0CF01E
:1004F00021FA02F10CE002F11402D8BFC2F1200C83
:1005000001FA02F120FA0CFCDCBF41EA0C01904038
:10051000E41AA2BF01EB0451294330BD6FEA040481
:100520001F3C1CDA0C340EDC04F11404C4F120026C
:1005300020FA04F001FA02F340EA030021FA04F37E
:1005400045EA030130BDC4F10C04C4F1200220FAD5
:1005500002F001FA04F340EA0300294630BD21FA13
:1005600004F0294630BD94F0000F83F4801306BFD9
:1005700081F480110134013D4EE77FEA645C18BFCD
:100580007FEA655C29D094EA050F08BF90EA020F64
:1005900005D054EA000C04BF1946104630BD91EA5C
:1005A000030F1EBF0021002030BD5FEA545C05D15F
:1005B0004000494128BF41F0004130BD14F580049E
:1005C0003CBF01F5801130BD01F0004545F0FE4112
:1005D00041F470014FF0000030BD7FEA645C1ABF47
:1005E000194610467FEA655C1CBF0B46024650EA7E
:1005F000013406BF52EA033591EA030F41F40021AA
:1006000030BD00BF90F0000F04BF0021704730B52F
:100610004FF4806404F132044FF000054FF0000104
:1006200050E700BF90F0000F04BF0021704730B5C5
:100630004FF4806404F1320410F0004548BF40429A
:100640004FF000013EE700BF42004FEAE2014FEAEF
:1006500031014FEA02701FBF12F07F4393F07F4FCA
:1006600081F06051704732F07F4208BF704793F0CD
:100670007F4F04BF41F40021704730B54FF46074E0
:1006800001F0004521F000411CE700BF50EA0102E3
:1006900008BF704730B54FF000050AE050EA01028C
:1006A00008BF704730B511F0004502D5404261EBFC
:1006B00041014FF4806404F132045FEA915C3FF43D
:1006C000D8AE4FF003025FEADC0C18BF03325FEADA
:1006D000DC0C18BF033202EBDC02C2F1200300FA8B
:1006E00003FC20FA02F001FA03FE40EA0E0021FAB0
:1006F00002F11444BDE600BF53B94AB9002908BF4E
:1007000000281CBF4FF0FF314FF0FF3000F074B9EC
:10071000ADF1080C6DE904CE00F006F8DDF804E058
:10072000DDE9022304B070472DE9F047089D044637
:100730008E46002B4DD18A42944669D9B2FA82F294
:1007400052B101FA02F3C2F1200120FA01F10CFAD0
:1007500002FC41EA030E94404FEA1C48210CBEFB08
:10076000F8F61FFA8CF708FB16E341EA034306FB91
:1007700007F199420AD91CEB030306F1FF3080F020
:100780001F81994240F21C81023E63445B1AA4B26D
:10079000B3FBF8F008FB103344EA034400FB07F70F
:1007A000A7420AD91CEB040400F1FF3380F00A8150
:1007B000A74240F207816444023840EA0640E41B45
:1007C00000261DB1D4400023C5E900433146BDE8F1
:1007D000F0878B4209D9002D00F0EF800026C5E993
:1007E000000130463146BDE8F087B3FA83F6002EAB
:1007F0004AD18B4202D3824200F2F980841A61EB23
:10080000030301209E46002DE0D0C5E9004EDDE740
:1008100002B9FFDEB2FA82F2002A40F09280A1EB28
:100820000C014FEA1C471FFA8CFE0126200CB1FB7D
:10083000F7F307FB131140EA01410EFB03F0884276
:1008400008D91CEB010103F1FF3802D2884200F203
:10085000CB804346091AA4B2B1FBF7F007FB101195
:1008600044EA01440EFB00FEA64508D91CEB040433
:1008700000F1FF3102D2A64500F2BB800846A4EB8E
:100880000E0440EA03409CE7C6F12007B34022FA79
:1008900007FC4CEA030C20FA07F401FA06F31C43A8
:1008A000F9404FEA1C4900FA06F3B1FBF9F8200CB5
:1008B0001FFA8CFE09FB181140EA014108FB0EF0FB
:1008C000884202FA06F20BD91CEB010108F1FF3A4B
:1008D00080F08880884240F28580A8F10208614457
:1008E000091AA4B2B1FBF9F009FB101144EA014165
:1008F00000FB0EFE8E4508D91CEB010100F1FF3410
:100900006CD28E456AD90238614440EA0840A0FBA7
:100910000294A1EB0E01A142C846A64656D353D07D
:100920005DB1B3EB080261EB0E0101FA07F722FAA1
:1009300006F3F1401F43C5E9007100263146BDE8CA
:10094000F087C2F12003D8400CFA02FC21FA03F32D
:10095000914001434FEA1C471FFA8CFEB3FBF7F0AE
:1009600007FB10360B0C43EA064300FB0EF69E42D3
:1009700004FA02F408D91CEB030300F1FF382FD26C
:100980009E422DD9023863449B1B89B2B3FBF7F614
:1009900007FB163341EA034106FB0EF38B4208D9ED
:1009A0001CEB010106F1FF3816D28B4214D9023E2E
:1009B0006144C91A46EA004638E72E46284605E74C
:1009C0000646E3E61846F8E64B45A9D2B9EB02081D
:1009D00064EB0C0E0138A3E74646EAE7204694E7AD
:1009E0004046D1E7D0467BE7023B614432E73046E0
:1009F00009E76444023842E7704700BFFEE700BFE2
:100A00000B480C4A904203D0121A0B4913F01AF803
:100A10000A480B4A904203D0121A002113F020F822
:100A200003F0DEFF12F0E2FF00F036FAFEE700BF4F
:100A30000000002408060024B4540108080600241D
:100A4000A06B0624704700BF704700BF704700BF0F
:100A5000704700BF704700BF704700BFF0EE407A9C
:100A60004FF07C53F7EE006A00229FED0C0A4360C2
:100A700086EEA77AC3608261C0ED047A80ED020A37
:100A800010B5044680ED057A12F0D2F9002240F24A
:100A9000011384ED070A2270238510BD0000C842AF
:100AA00010B5134802F040FC48B9124C04232370DF
:100AB000114802F039FC70B90423237010BD0F48AF
:100AC0000C4C02F031FC68B106230B48237002F095
:100AD0002BFC0028F0D00A4802F026FC28B106239F
:100AE000237010BD01232370E2E70123237010BDA2
:100AF000500600242406002458060024540600242E
:100B00005C06002400000000002A00F093812DE91B
:100B1000F04F0F4692460024DFF87893D24ED34D23
:100B2000DFF84CB3DFF868832DED108B85B038E02B
:100B3000F7EE007AF4EE67AAF1EE10FA77FEAAAAB1
:100B400099F80010CA48CBED00AAC8ED019A88EDCB
:100B5000008A11F05BFFF0EE408AC34811F0AEFF4F
:100B6000C24820EE280A8DED020A11F0A7FFDFED42
:100B7000C17A20EE280AB4EEE78A8DED030AF1EE81
:100B800010FA00F346813A687B6802EB840202990E
:100B900003EB840301341160039AA2451A6000F04C
:100BA0004481B54812F05CF928B199F8003083F01F
:100BB000010389F800300021B04802F0D9F807EEAF
:100BC000900A9FEDAFEA0121F8EEE77AAB48B7EE65
:100BD000009BB1EE00BB87EE8E7A9FED978B9FED69
:100BE00098AB9FED99CBB0EE48FBB0EE4ADBB7EE89
:100BF000C77AA7EE07FB02F0BBF807EE900A0221C6
:100C00009E48F8EEE77A87EE8E7AB7EECFFBB7EE26
:100C1000C77A27EE077BA7EE0CDB02F0A9F807EEF8
:100C2000900A03219548F8EEE77AB0EE486B87EE1C
:100C30008E7AB7EEC77AA7EE076BF7EEC6EB02F037
:100C400097F807EE900A04218C48F8EEE77A87EED1
:100C50008E7AB7EEC77A27EE077BA7EE0CAB02F0D1
:100C600087F807EE900A05218448F8EEE77AB0EE9F
:100C7000496B87EE8E7AB7EECAABB7EEC77A27EE2E
:100C8000077BA7EE0B6BF7EEC6CB02F071F807EE11
:100C9000900AB0EE496B06217848F8EEE77A87EEC5
:100CA0008E7AB7EEC77A27EE077BA7EE0B6BB7EE0F
:100CB000C6CB02F05DF807EE900AB0EE486B072154
:100CC0006E48F8EEE77A87EE8E7AB7EEC77AA7EE2F
:100CD000076BF7EEC6AB02F04BF807EE900A08215F
:100CE0006648F8EEE77A87EE8E7AB7EEC77A27EE97
:100CF000077BA7EE0B9B02F03BF807EE900A092159
:100D00005E48F8EEE77A9FED525B87EE8E7AB7EE9B
:100D1000C99B9FED516BB7EEC77A27EE077BA7EE15
:100D2000056BF7EEC69B02F023F807EE900A5548D4
:100D3000F8EEE77A9FED4A6B87EE8E7AB7EEC77AC8
:100D400027EE077BA7EE068B11F0B8FE4D48F7EEB5
:100D5000CD7B27EE80DADFED4C7A3DEE0DDAB7EE93
:100D6000C88BB5EEC0DAF1EE10FA48BFB1EE4DDA3D
:100D7000B4EE67DAF1EE10FA48BFB0EE67DA11F0C0
:100D80009DFE20EE0AAADFED407A3748B0EE4D0A0C
:100D900086ED02DA3AEE0AAAB5EEC0AAF1EE10FA32
:100DA00048BFB1EE4AAAB4EE67AAF1EE10FA48BF06
:100DB000B0EE67AA12F03CF8F0EE407A2B48B0EEA5
:100DC0004A0A85ED02AAC6ED077A12F031F886EDDF
:100DD00001FA85ED070AC5ED01EAFFF761FEB0EE05
:100DE000490A254812F056F8B0EE6C0A0121204855
:100DF00011F084FDB0EE4C0A02211D4811F07EFD79
:100E0000F5EEC0AAF1EE10FA3FF692AEDFED1FAAA2
:100E100096E6D7E90031013403AA009102A91C48E3
:100E200012F08EF9A2457FF4BCAE05B0BDEC108B7C
:100E3000BDE8F08F704700BF000000000000000018
:100E40000000000000803B4000000000803EB040F9
:100E5000000000000017E1400000000000408F404B
:100E6000000000C0CCCCEC3F24060024FC0600248B
:100E7000A0060024CDCC4C3D280700247806002491
:100E800000FE7F47D00600240000DC410AD723BCC7
:100E9000380700247C12062480B50021B8B07748BA
:100EA000B6EE008A00F06AFA0421744800F08EF968
:100EB000724800F087F9724D724B734C28462B60D4
:100EC00084ED000A02F054F92846704B704D40F84A
:100ED000043F02F04DF96F4B28466F4F2B6002F034
:100EE00047F96E4B28466E4E6E4D40F8043F02F0B7
:100EF0003FF9142000F04CF9ADF8040002220199EA
:100F00000BA801F0FDFC112000F042F9ADF808003B
:100F1000022202990DF13E0001F0F2FC152000F0D2
:100F200037F9ADF80C000222039914A801F0E8FC8F
:100F3000122000F02DF9ADF81000022204990DF1F5
:100F4000620001F0DDFC102000F022F9ADF8140081
:100F5000022205991DA801F0D3FC162000F018F913
:100F6000ADF81800022206990DF1860001F0C8FCC8
:100F7000172000F00DF9ADF81C000222079926A8F1
:100F800001F0BEFC182000F003F9ADF820000222A9
:100F900008990DF1AA0001F0B3FC0F2000F0F8F859
:100FA000ADF82400022209992FA801F0A9FC132012
:100FB00000F0EEF8ADF8280002220A990DF1CE00FB
:100FC00001F09EFC0A220BA90423374801F0ACFC77
:100FD000354801F0B7FE002001F0B8FB94ED000A9F
:100FE0003846FFF73BFD304694ED000AFFF736FD2B
:100FF0000623284694ED000A3B7004233370FFF764
:101000002DFD00239FED290A2846294E2B7085EDE2
:10101000020A11F00DFFF0EE407AD4ED000AB7EEAF
:10102000000A2448C5ED077A11F008FF012194ED6C
:10103000000A3046204D11F0F1FBB7EE000A012105
:10104000304611F05BFC0221B7EE000A304611F089
:1010500055FC94ED000A284686ED008A11F0B0FF99
:10106000D4ED007A154B67EE887A154903482B605A
:10107000C5ED017A00F0A2F8FEE700BF600600248B
:1010800050060024010E000180120624010F000109
:10109000580600240107000124060024010600016F
:1010A000FC060024D006002478060024CDCC4C3E5B
:1010B000A006002428070024380700246666663F3F
:1010C000090B000838B521480025214C214922464A
:1010D000056045610562C56312F0A2F922461E490A
:1010E0001E4812F09DF922461B491D4812F098F93E
:1010F000224619491B4812F093F91B4800231B494B
:101100002246858503604360C360C3610362436216
:101110008160016141618161154912F081F9154DCC
:1011200022461549154812F07BF922461449154804
:1011300012F076F922462946134812F071F9224638
:1011400029461248BDE8384012F06AB9600600240A
:1011500000000024490A0008510A0008240600245F
:10116000FC060024D0060024A0060024000080BF56
:101170004D0A0008450A0008550A000828070024FF
:10118000590A000838070024500600245806002495
:10119000202882B009D8084B03EB400213F8103026
:1011A000507843EA002002B0704701230C2043EA44
:1011B000002002B0704700BF604E0108143001F0FB
:1011C00009BA00BF143001F001BA00BF38B500F110
:1011D000140504462DED028B284601F0E9F9284656
:1011E00001F0F4F92846B0EE408A01F0DDF9D0EDC7
:1011F000007AF8EE677A88EE277ABDEC028B84EDF0
:101200000E7A38BD10B540F203338EB000244FF68D
:101210000B7240F20341ADF8083009A80123ADF884
:101220001020ADF824202246ADF80C10009402994D
:1012300007940C94CDE90544CDE90A4401F09CFEE5
:1012400004A8012322460399009401F095FE09A801
:1012500001F078FF10B901200EB010BD04A801F014
:1012600071FFA0420CBF022020460EB010BD00BF8F
:101270002DE9F04103239AB0012700240646CDE969
:1012800014373B4BCDE9104340F20453CDE91647E8
:10129000ADF84830FFF7B6FFB842054625D0022822
:1012A00045D040F60132334B0DF12C081894ADF8BF
:1012B0002C200B981997CDF84A3000F0E3F810A9CC
:1012C00006F13C0002F088FF302003224FF07E53ED
:1012D00041460D930E93CDE90B02F26B06F114001B
:1012E00001F02AF91AB0BDE8F0811023214A06A9BD
:1012F00006908DF828300DF12C081F4BCDF84A20B0
:1013000007930294CDE91804CDE9080402A802F07D
:1013100099F90823029A03A94046ADF80C508DF8BC
:101320000E40049505930B9400F0ECF8C7E70020FD
:101330000121104B0DF12C083A460094CDF84A30AB
:101340004FF60B730C94ADF82C302346CDE9180101
:1013500040F601314046ADF818100699CDE90D442C
:1013600001F00AFE2146404601F0F8FEA7E700BF63
:1013700004020404040604030704010B2DE9F047EA
:1013800004462DED028B82B000294DD0012140F2A0
:10139000011200230091ADF804208DF80630364A82
:1013A0000127364B04F10409354904F1290862602C
:1013B00040F20272A36040F60663E16004F1250A80
:1013C000A4F82520A4F82930278284F8277084F80F
:1013D0002B7003F0BBFA054603F01EF9694606467A
:1013E00050BB4DB304F130008DF8067003F036FAAF
:1013F000072D3CD104F114052046FFF739FF28469C
:1014000001F0E4F82846B0EE408A01F0CDF8D0EDC6
:10141000007AF8EE677A88EE277A84ED0E7A02B0C9
:10142000BDEC028BBDE8F08740F2011300918DF80E
:101430000610ADF80430B2E704F1300003F00EFA04
:10144000072D11D04946204602F046FB0EB9002D6B
:10145000D0D1504601F08CFE404601F089FE04F1E7
:10146000120000F079F9C5E7002EF2D1C2E7494633
:10147000204602F031FBBDE7050805090507050612
:10148000050A060610B584B003460124ADF8040031
:1014900003A8ADF80C30ADF80E4001F069FE21460E
:1014A00003A801F04FFF204603F0B4F8002103A881
:1014B00001F048FF204603F0ADF8214603A801F0F3
:1014C00041FF04B010BD00BF10B5C2F3002384B0CB
:1014D0000C46017C8DF80D2043EA4402FA240223D5
:1014E0008DF80C2003AA009402F042F918B10124EF
:1014F000204604B010BD04460A2003F08BF82046B5
:1015000004B010BD034670B543F8042B044684B004
:1015100007C983E80700A37983B91A210B461E2265
:10152000FA2523742046ADF80C20022303AA009567
:1015300002F01EF928B1012004B070BD1B210B463A
:10154000EDE70A2003F066F84FF4B8520095022345
:10155000ADF80C20204603AA217C02F009F90028EE
:10156000E9D10A2003F056F841F2027200950223F5
:10157000ADF80C20204603AA217C02F0F9F80028DF
:10158000D9D10A2003F046F8042200950223ADF8D1
:101590000C20204603AA217C02F0EAF80028CAD1D8
:1015A0000A2003F037F8062200950223ADF80C203C
:1015B000204603AA217C02F0DBF80028BBD10A20D8
:1015C00003F028F841F2082200950223ADF80C2020
:1015D000204603AA217C02F0CBF80028ABD10A20D8
:1015E000064603F017F80095022303AA217C204643
:1015F000ADF80C6002F0BCF800289CD1304603F036
:1016000009F8009522790C232046002A8DF80C3029
:1016100003AA4FF0020314BF622142218DF80D107E
:10162000217C02F0A5F8002885D1304602F0F2FFB7
:101630002279D4E902310B43DBB20AB943F040030B
:1016400062790AB143F020030E22FA258DF80D309D
:101650002046009502238DF80C2003AA217C02F07D
:1016600087F800287FF467AF0A2002F0D3FF10222A
:1016700000950223ADF80C20204603AA217C02F03D
:1016800077F800287FF457AF0A2002F0C3FF122139
:1016900000950223ADF80C1003AA217C204602F02D
:1016A00067F800287FF447AF0A2002F0B3FF012259
:1016B00009212046FFF708FF003818BF01203BE74B
:1016C000F0B5102387B0234C012200250126002706
:1016D00002A920460195CDE902234FF48052CDE9BD
:1016E00004670AF0C3FB642003F06EFF02A94FF405
:1016F00080522046CDE9046702261027CDE9026713
:101700000AF0B4FB0322102302A92046CDE90223EC
:1017100000230422CDE904234FF480520AF0A6FBF3
:1017200040F23223042202A9019310232046CDE97E
:101730000223019A012305924FF4805204930AF088
:1017400095FB40F6060120460AF0B0FB284607B09C
:10175000F0BD00BF8C1206241C4B00221C494FF028
:10176000400C30B5054689B00220596007219A60C7
:101770001A620124DA620A224FF4006EDC600692DB
:101780002022CDE9000104200821CDE90201032037
:101790001021CDE9040108206946C3E904024FF491
:1017A000C072181DC3E906C24FF48052C3E909E2B2
:1017B0000AF032FB38B92846FFF782FF003818BF1D
:1017C000012009B030BD204609B030BD8812062482
:1017D00040410052614A0021D0B513688EB00A9191
:1017E000002B40F0B9805E4B01214FF683700C2432
:1017F00011600221D3F8D4200026032742F480523E
:10180000C3F8D420D3F8D42002F480520092009A76
:10181000D3F8E02042F01002C3F8E020D3F8E02033
:1018200002F010020192019AD3F8E02042F0400247
:10183000C3F8E020D3F8E02002F040020292029ABE
:10184000D3F8E02042F00802C3F8E020D3F8E0200B
:1018500002F008020392039AD3F8E02042F4807267
:10186000C3F8E020D3F8E02002F480720492049AD6
:10187000D3F8E02042F08002C3F8E020D3F8E02063
:1018800002F080020592059AD3F8E02042F020028F
:10189000C3F8E020D3F8E02002F020020692069A76
:1018A000D3F8E02042F00402C3F8E020D3F8E0309F
:1018B0000C9403F0040307930323079A0B93CDE9D9
:1018C000080108A9274805F005FD48F23712022350
:1018D00008A925480C94CDE90823CDE90A6705F04D
:1018E000F9FC4CF20372022308A920480C94CDE9BC
:1018F0000823CDE90A6705F0EDFC40F2FF62022300
:1019000008A91B480C94CDE90823CDE90A6705F026
:10191000E1FC4FF60C72022308A916480C94CDE99D
:101920000823CDE90A6705F0D5FC4FF63F020223F4
:1019300008A911480C94CDE90823CDE90A6705F000
:10194000C9FC2022022308A90A480C94CDE90A67A1
:10195000CDE9082305F0BEFC0EB0D0BD84120624EC
:10196000004402580010025800180258000C025897
:1019700000200258001C0258001402582DE9F04FB4
:10198000DFF8108406460D46144608F118002DEDC8
:10199000028B89B000AF02F017FDD8F8183073B38E
:1019A000D8F81C30D8F80490002B43690BBF4FF0D7
:1019B000080A4FF0100A4FF0020B4FF0040BB9F178
:1019C000000F2AD0A200EA46012B02F1070222F002
:1019D0000702ADEB020D6846ADEB020D694600F063
:1019E0003F81022B00F0D680002B6FD02246C847E3
:1019F000D5462437BD46BDEC028BBDE8F08FD8F844
:101A00001C30002BF5D0D8F804904FF0080A4FF0A6
:101A1000020B4369B9F1000FD4D1FB61D8F8003053
:101A2000BB61002BE5D0D54802F040FD6B46BBF111
:101A3000020F786108EE103AFB6900F083816A4674
:101A40005146A2EBC40295466200EA46B2FBFBF2A5
:101A5000AAEBC40085460AEB8200EE46F861ADEBC6
:101A6000010DF8690EEB820CC7F810C0EC46ADEB27
:101A7000010D00EB8201CCF80400CCF8081001EB5A
:101A800082013869E946CCF80C1000EB8201CCF8F1
:101A900000A001EB8202C9E900E0C9E90212012BB2
:101AA00000F06483022B00F06C82002B00F0808138
:101AB000620849466046BB69984718EE103A2437D9
:101AC0009D46BD46BDEC028BBDE8F08F002C8DD04D
:101AD0001A46D8ED0C6A9FEDB27A8446331D36F96A
:101AE00022E00CF1080C07EE90EA33F922E0023212
:101AF000F8EEE77A944267EE877A67EEA67A4CEDC5
:101B0000027A07EE90EAF8EEE77A67EE877A67EEF8
:101B1000A67A4CED017AE2D8F9612246C847984E80
:101B2000D8ED0D6A0020F9692B1D9FED9E7A9FED7F
:101B30009E6ADFED9E5A22E0F4EEC67AF1EE10FACC
:101B4000C0F2C88447F6FE72D1ED017A45F8202034
:101B500066EEA77AF4EEC77AF1EE10FA40F2F08062
:101B6000F4EEC67AF1EE10FAC0F2D58447F6FE72B2
:101B700043F820200230083184427FF639AFD1ED9E
:101B8000007A66EEA77AF4EEC77AF1EE10FAD3D8AF
:101B90003246D9E7002C3FF429AFD8ED0C6A8446D1
:101BA0009FED787A0022331D8E4656F822100CF1F4
:101BB000080C07EE901A53F822100232F8EEE77A7A
:101BC000944267EE877A67EEA67A4CED027A07EECA
:101BD000901AF8EEE77A67EE877A67EEA67A4CED10
:101BE000017AE2D871462246C7F81CE0C847664E23
:101BF000D8ED0D6A0020F9692B1D9FED6A7A9FEDE3
:101C00006A6ADFF894C120E0F4EEC67AF1EE10FAC9
:101C1000C0F279843246D1ED017A45F8202066EE93
:101C2000A77AF4EEC77AF1EE10FA40F28780F4EE6C
:101C3000C67AF1EE10FAC0F25E84324643F82020F4
:101C40000230083184427FF6D3AED1ED007A66EEE1
:101C5000A77AF4EEC77AF1EE10FAD5D86246DAE741
:101C6000002C3FF4C3AED8ED0C6A86469FED477A50
:101C70004FF0000C331D56F82C200EF1080E82F4A4
:101C80000002A2F5000207EE902A53F82C200CF176
:101C9000020CF8EEE77A82F400026445A2F5000235
:101CA00067EE877A67EEA67A4EED027A07EE902A03
:101CB000F8EEE77A67EE877A67EEA67A4EED017A5C
:101CC000D9D8F9612246C847314ED8ED0D6A0020B7
:101CD000F9692B1D9FED337A9FED336ADFF8BCC0A5
:101CE0001FE0F4EEC67AF1EE10FAC0F2FC83324641
:101CF000D1ED017A45F8202066EEA77AF4EEC77A96
:101D0000F1EE10FA18D9F4EEC67AF1EE10FAC0F23C
:101D1000DA83324643F820200230083184427FF6CD
:101D200067AED1ED007A66EEA77AF4EEC77AF1EEEF
:101D300010FAD6D86246DBE76246EBE762467DE7FB
:101D4000324615E7A100D6466208073121F00701A7
:101D5000ADEB010DEA46ADEB010D6946ADEB0E0DA5
:101D60000AEB8200EC46ADEB0E0D01EB8202F8614E
:101D7000E946CCE900A0C9E9001290E6DC1206248D
:101D80000280FFFF000000300082FF7F000000346F
:101D900082FF7F00C0120624007E00807E0080FF4C
:101DA0000000003804FF7FBF04FF7F3F00FEFF46B6
:101DB000002C00F0C982BBF1020FD8F8242000F0FB
:101DC000FA827969C7F8049002EB810E5FED0C5A34
:101DD0008A00DCF808100EF104007A611A46DCF87B
:101DE0000C303B61331DD7F810903D61FD69C7E9A8
:101DF00002CB8C46834636F92210D8ED0C7A06EEDB
:101E0000101A33F9221006EE901A3EF92210B8EE9D
:101E1000C66A07EE101AF8EEE66A3BF92210B8EE31
:101E2000C77A26EE256A66EEA56A27EE257A26EEA3
:101E3000276A66EEA76A27EE277A07EE901A5108FE
:101E40000232F8EEE77A0AEB8100944280ED006AF4
:101E500005EB810067EEA57AC0ED006A0CEB81000E
:101E600009EB810180ED007A98ED0C7A67EE877AB4
:101E7000C1ED007ABFD8D7F804903D69D7E902CB0D
:101E800060466208BB6949469847D8F82C307A69A1
:101E9000D8ED0D6A1A441FED3D7A1FED3D6A2B1DEA
:101EA000904602F1040A5FED3F5A0022A84ED9E99C
:101EB00000EC51E0F4EEC67AF1EE10FAC0F2C782FF
:101EC00047F6FE7045F822000CEB0100D0ED007AD9
:101ED00066EEA77AF4EEC77AF1EE10FA4BD9F4EE7B
:101EE000C67AF1EE10FAC0F2BA8247F6FE70BBF184
:101EF000020F43F822002BD0D9F808000844D0ED97
:101F0000007A66EEA77AF4EEC77AF1EE10FA36D9C7
:101F1000F4EEC67AF1EE10FAC0F2CD8247F6FE700A
:101F200048F82200D9F80C000144D1ED007A66EEA1
:101F3000A77AF4EEC77AF1EE10FA1ED9F4EEC67A5B
:101F4000F1EE10FAC0F2AF8247F6FE714AF82210A5
:101F5000023294427FF6B1AD51080EEB8100890048
:101F6000D0ED007A66EEA77AF4EEC77AF1EE10FAB9
:101F7000A0D83046A6E73046B9E73146E6E7304616
:101F8000CEE7002C00F0E081BBF1020FD8F824303E
:101F900000F0E1817A69DCF8081003EB820EC7F8E3
:101FA00004909300DFED6B5A0EF1040000227B6178
:101FB000DCF80C303B61331DD7F810903D61FD69B2
:101FC000C7E902CB8C46834656F82210D8ED0C7A2E
:101FD00007EE101A53F82210B8EEC76A07EE101A6F
:101FE0005EF82210F8EEC76A07EE101A26EE256A90
:101FF0005BF82210B8EEC77A66EEA56A26EE276A6D
:1020000027EE257A66EEA76A27EE277A07EE901A62
:1020100051080232F8EEE77A0AEB8100944280ED33
:10202000006A05EB810067EEA57AC0ED006A0CEB53
:10203000810009EB810180ED007A98ED0C7A67EE62
:10204000877AC1ED007ABFD8D7F804903D69D7E907
:1020500002CB60466208BB6949469847D8F82C30E5
:102060007A69D8ED0D6A1A449FED3E7A9FED3E6A7B
:10207000131D9246DFF8E4C00022FB612B1D364E93
:10208000D9E9008E4EE0F4EEC67AF1EE10FAC0F215
:10209000FC81304645F822000EEB0100D0ED007ABD
:1020A00066EEA77AF4EEC77AF1EE10FA49D9F4EEAB
:1020B000C67AF1EE10FAC0F2EF813046BBF1020FA2
:1020C00043F822002AD0D9F808000844D0ED007A5D
:1020D00066EEA77AF4EEC77AF1EE10FA35D9F4EE8F
:1020E000C67AF1EE10FAC0F2C98130464AF82200F1
:1020F000D9F80C000144D1ED007A66EEA77AF4EE2F
:10210000C77AF1EE10FA1ED9F4EEC67AF1EE10FAA3
:10211000C0F2AD813146F86940F822100232944293
:102120007FF6CBAC510808EB81008900D0ED007A36
:1021300066EEA77AF4EEC77AF1EE10FAA3D86046FD
:10214000A8E76046BAE76146E5E76046CEE700BF2C
:102150000280FFFF000000300082FF7F007E0080D1
:102160000000003404FF7FBF04FF7F3F002C00F01D
:10217000EB807A690021D8F82430C7F8109003EB7F
:10218000820ED7F81C909300FD610EF104021FED42
:102190000C6A7B61331D154656F821204808D8ED9E
:1021A0000C6ABBF1020F82F40002A2F5000207EEF6
:1021B000902A53F8212082F40002B8EEE77AA2F5C3
:1021C000000227EE067A07EE902A0AEB8002F8EE6C
:1021D000E77A27EE267A67EE867A82ED007A09EBB7
:1021E00080024FEA800067EEA67AC2ED007A27D01F
:1021F0005EF8212082F40002A2F5000207EE902A88
:1022000055F8212082F40002B8EEE77AA2F5000228
:1022100027EE067A07EE902ADCF80820F8EEE77A37
:10222000024427EE267A67EE867A82ED007A98EDF0
:102230000C7ADCF80C2067EE877A0244C2ED007A53
:1022400002318C42A8D8D7F8109060466208BB696A
:102250004946FD699847D8F82C307A69D8ED0D6A5F
:102260001A441FED407A1FED406A131D9246DFF8B5
:10227000C4C20022FB612B1DAB4ED9E9008E4EE09B
:10228000F4EEC67AF1EE10FAC0F2C580304645F899
:1022900022000EEB0100D0ED007A66EEA77AF4EE94
:1022A000C77AF1EE10FA49D9F4EEC67AF1EE10FAD7
:1022B000C0F2BF803046BBF1020F43F822002AD0A3
:1022C000D9F808000844D0ED007A66EEA77AF4EE5B
:1022D000C77AF1EE10FA35D9F4EEC67AF1EE10FABB
:1022E000C0F2AE8030464AF82200D9F80C00014412
:1022F000D1ED007A66EEA77AF4EEC77AF1EE10FA25
:102300001ED9F4EEC67AF1EE10FAC0F28B80314697
:10231000F86940F82210023294427FF6CEAB5108A1
:1023200008EB81008900D0ED007A66EEA77AF4EE22
:10233000C77AF1EE10FAA3D86046A8E76046BAE77C
:102340006146E5E76046CEE7224649466046BB69FE
:102350009847FFF7B2BBC7F810B0002298ED0C6A9F
:10236000331DDFED726AD7F81CB0786956F8221079
:1023700007EE901A53F82210B8EEE77A07EE901A9B
:1023800051080232F8EEE77A27EE267A0AEB810E40
:1023900094420BEB810167EEA67A27EE067A67EE90
:1023A000867A8EED007AC1ED007ADFD88300D7F807
:1023B00010B07B614DE61A46C7F810B098ED0C6A74
:1023C000331DDFED5B6AD7F81CB0786936F922104F
:1023D00007EE101A33F9221007EE901AB8EEC77AFA
:1023E00051080232F8EEE77A27EE267A0AEB810EE0
:1023F00094420BEB810167EEA67A27EE067A67EE30
:10240000867A8EED007AC1ED007ADFD88300D7F8A6
:1024100010B07B6134E5F0EE675AFEEEE45A15EE3B
:10242000900A34E7F0EE675AFEEEE45A15EE901A81
:102430006EE7F0EE675AFEEEE45A15EE900A3AE7C0
:10244000F0EE675AFEEEE45A15EE900A4BE767EE9F
:10245000A57AFDEEE77A17EE900A00B232E567EE54
:10246000A57AFDEEE77A17EE900A00B23FE5F0EEAE
:10247000675AFEEEE05A15EE901A4CE6F0EE675AF7
:10248000FEEEE05A15EE900A30E6F0EE675AFEEEE8
:10249000E05A15EE900AFDE5F0EE675AFEEEE05ABE
:1024A00015EE900A0AE667EEA57AFDEEE77A17EEDA
:1024B000901A09B24AE567EEA57AFDEEE77A17EEC3
:1024C000900A00B22CE5F0EE675AFEEEE45A15EEE3
:1024D000902A1FE467EEA57AFDEEE77A17EE902AC0
:1024E00012B2FFF731BBF0EE675AFEEEE45A15EE7A
:1024F000902AFFF7FDBBF0EE675AFEEEE05A15EEAC
:10250000902AFFF79BBBF0EE675AFEEEE05A15EEFD
:10251000902AFFF780BB67EEA57AFDEEE77A17EE0B
:10252000902A12B2FFF724BB82FF7F000000003028
:10253000000000387E0080FF30B5184C154685B08D
:10254000046004F1080EEC460FC98EE80F00D4EDCC
:10255000047AF5EEC07A8CE80F00F1EE10FA1ADD7D
:10256000B7EE006A94ED057A27EE277AC6EE276A61
:1025700084ED0D7AC4ED0C6A6DB1204640F8185F09
:1025800001F022FF064903690020064A2162A26287
:10259000E36005B030BD012005B030BDC012062497
:1025A000002000300000003000680830704700BF95
:1025B000B1F5807F03680A4628BF4FF48072B1F5F9
:1025C000807F9A6094BF0020012070470068183017
:1025D00001F05ABF30B5046883B00D46E3694BB1D2
:1025E000A3680020E26A616A9B00009004F11C006D
:1025F00001F0ECFEA3680748A26A9B00216A0090E4
:1026000004F1180001F0E2FE0020C4E9005003B01C
:1026100030BD00BF7D19000810B4074B4FF07E514C
:1026200030240022032019619C60D8605DF8044BBF
:102630005961C3E906227047C0120624704700BFE3
:10264000F8B5134F3C687F2C07D98023114A42F21A
:1026500024411C463B60A2F87E100F4D2B68012BD5
:102660000AD90C4E0D4D22463146284600F02CF971
:102670000028F8D13860F8BD22460649074800F026
:1026800023F90028F7D12B68386001332B60F8BD9F
:10269000FC12062400130624F812062480130624D4
:1026A00030B4154C2168F1B14B1E144DE81810F8E8
:1026B00001298C4619460A2A01D00D2A02D14BB1B4
:1026C000013BF4E70CF102037F2B10D98023236038
:1026D00030BC70470122022323600D200A23685476
:1026E000AB5430BC704701220223044DF4E70CF1D7
:1026F00001026146F0E700BFFC1206240013062425
:1027000010B5094C02460B46084821680844C1F13F
:10271000800111F0CDFA236818442060FFF7C0FF54
:10272000FFF78EFF10BD00BFFC1206240013062425
:102730000FB400B583B004A951F8040B0191FFF761
:10274000DFFF03B05DF804EB04B0704710B504463A
:1027500000210A4800F032F8002C094B14BF022275
:10276000002208481A60FFF7E3FF0748FFF7E0FF81
:102770000A20BDE8104001F04DBF00BF80130624C1
:10278000F8120624A44E0108B44E0108064A07496F
:10279000074808B510F044FE034A04490548BDE85F
:1027A000084010F03DBE00BF000000243D26000898
:1027B0008013062484130624704700BF012910B536
:1027C00006D0022915D051B1BDE8104006F064BC16
:1027D0000A46344834490AF0F9FDE8B1FEE7334BC4
:1027E0000A46334C334934481C600AF0EFFD68B1A7
:1027F000FEE701222C492B480AF0E8FD00B1FEE774
:102800002E4928480AF004FEC0B1FEE72B492A48A9
:102810000AF0FEFD60B1FEE7284922480AF0F8FD03
:1028200000B1FEE726491F480AF080FD08B3FEE725
:10283000244921480AF07AFDA8B1FEE72049194849
:102840000AF074FD00B1FEE716480AF0F7FD0246F3
:1028500040B9164B164C174917481C600AF0B6FDD4
:1028600068B1FEE7FEE714480AF0E8FD0028ABD0A7
:10287000FEE70C480AF0E2FD0028A5D0FEE70F496C
:102880000D480AF0C5FD00B1FEE70E490A480AF0FE
:102890004DFD00B1FEE708480AF0D0FD002893D0B6
:1028A000FEE700BF24160624A0000024C01806245A
:1028B000B927000884000024881306240801002496
:1028C0006400002454000024084691B208B502F0C8
:1028D00077F9003818BF012008BD00BF014805F096
:1028E000B9BE00BFB8430624014805F0B3BE00BF1F
:1028F000B8430624014805F0ADBE00BFB843062426
:1029000000B583B04FF0000E4FF0030C4274ADF8E9
:102910000410BDF8043080F810E0A0F802C0038075
:1029200003B05DF804FB00BF2DE9F04FDFF81C8316
:1029300000258DB0C04C037008F14003426007468B
:1029400001920E46202229464046C4F86831C4F858
:102950006481CDE90255CDE90455CDE90655CDE9AF
:102960000855CDE90A5511F07BF82022294604F5D7
:10297000A170C4F83151C4F83551C4F83951C4F8C4
:102980003D5111F06DF8019B84F8485284F83031C4
:102990007A68002A6AD02B4604F59871454606F1FC
:1029A000100A9E46F01856F803B0E2180EF1010E18
:1029B000D0F80CC0D0F80490D0F8088044F803B0E8
:1029C000C2F80CC04FF0000CC2F80490C2F80880A6
:1029D000008A25F802CB10821AF8032001F8012F93
:1029E000002A70D07A684FF001001233724584F8E3
:1029F0004802D7D84FF4802290489DF8043008212F
:102A00004FF000084FF00009C4F884310023C4E9F6
:102A10005B020122C4F8743184F88031C4E95E217C
:102A200094F84812C4E96489A9B3C4F89821002233
:102A300084F8813184F888313B78C4E96722002B1F
:102A400038D0012200200121013B84F8A421C4E9EF
:102A50006C01082B30D8DFE813F0BD00C200C700BE
:102A6000CC00D100D600DB00E100E8009DF8043086
:102A70000121C4F87421C4F884314FF4802384F810
:102A800080216E4AC4E95B2308230022C4E95E1357
:102A90000023C4E964230123002284F88131002348
:102AA00084F888310323C4F898313B78C4E967225D
:102AB000002BC6D184F8A431614803F0BDF9034668
:102AC00038B1FFBEFEE77A68123372453FF66AAF4F
:102AD00090E702A95A48029303F00CFB82460028B3
:102AE00076D1042240F2FF710A90CDE9081294F8E1
:102AF0003021002A00F0F3804FF006080AEBCA03E9
:102B00004FEACA0904EB43035B7C072B07D8DFE8D5
:102B100003F0595C5653504D4A04072307930FFAAC
:102B20008AF6D14406EBC60604EB490904EB4607D6
:102B30007500384600F01CFB99F81030042B00F3A8
:102B4000AA80022B00F3BD8000F0B98004EB0A03D9
:102B5000002283F8202114F81630002B78D0022BA5
:102B600000F08A80012B40F0B2807B78012B00F0CE
:102B7000B080002B334B18BF002305A93048CDE9A6
:102B8000053802F085FD002840F0AC800AF1010A0A
:102B900094F830315FFA8AFA534540F2A0802A4B0C
:102BA00053F82A80AAE706230793B8E7052307937B
:102BB000B5E704230793B2E703230793AFE70223A4
:102BC0000793ACE700230793A9E701230793A6E740
:102BD000FFBEFEE703224023C4E96A236CE7072215
:102BE0006023C4E96A2367E70F228023C4E96A23CC
:102BF00062E71F22A023C4E96A235DE73F22C023C6
:102C0000C4E96A2358E77F22E023C4E96A2353E733
:102C1000FF224FF48073C4E96A234DE740F2FF12AC
:102C20004FF49073C4E96A2346E740F2FF324FF451
:102C3000A073C4E96A233FE7C818062400200240B5
:102C4000341A06240002B025C44E010800400030AA
:102C50007B78062B37D0072B3DD0022B4AD0032B95
:102C60004AD0002B4CD0012B48D0042B4AD0052B46
:102C7000254B18BF002380E77B78042B25D0052B3C
:102C80002BD08BB3012B31D0022B31D0032B1F4B18
:102C900018BF002371E70323043504EB0A0B4FF040
:102CA000000925448BF82031284609F1010900F07C
:102CB0005FFA9BF8203104354B45F5DC4BE70123E7
:102CC000EAE70223E8E7124B57E7124B55E70023E8
:102CD00053E7114B51E7114B4FE7114B4DE70DB047
:102CE000BDE8F08FFFBEFEE70E4B46E70E4B44E714
:102CF0000E4B42E70E4B40E70E4B3EE70E4B3CE7D8
:102D00000E4B3AE70E4B38E70000B84F00209036E4
:102D10000800900C1000C0102000F0148000501D1E
:102D2000000180210004002A0008302E00106032CB
:102D30000040C03A0080F03E0000524700002143AE
:102D40000000844B38B5094C40F2FF724FF001117E
:102D500004F5B675284603F07BF994F83021D4F8D1
:102D600064112846BDE8384002F0E6BEC8180624C3
:102D7000044B0F29D3F8643198BF03EB4103188843
:102D8000704700BFC8180624214B02689A4200D041
:102D90007047204A00232048D2F8D81030B51F4C85
:102DA00041F0200183B0C4F8D001092004F5E87592
:102DB000C4E975034FF48060C2F8D810D2F8D82067
:102DC0004FF40061C4E9773094F8480202F0200221
:102DD000C4F8E4114FF40051984201922846C4F817
:102DE000E811C4E97C33019B14BF00234FF48073C6
:102DF000C4F8EC3103F0A4FB08B1FFBEFEE704F514
:102E0000B673C4F8B851C4F8083203B030BD00BF7F
:102E1000002002400044025840000240C818062426
:102E2000014803F005BF00BF981A062402682DE987
:102E3000F84F4B4B9A4201D0BDE8F88F494D95F8B9
:102E40004832002BF8D095F83031002B77D0002491
:102E500005F10C0905F5A17605F59877A04613E074
:102E600003F0010117F811BCA9F1080000F06AFA9B
:102E7000BBF1010F25D895F83031013409F1120961
:102E80000236A2B293422BD917F8012F002AF4D0B0
:102E9000D5F864310021327833F81400D5F8683160
:102EA00003EB041323F81200338801339BB2338001
:102EB0005FFA83FA3A789A42D2D88A46A6F8008016
:102EC000D0E7CAF34001A9F1040000F03BFABBF1DE
:102ED000020FCAF38001CED0484600F033FACAE7A9
:102EE000002395F84802204909229842C5F8D831B4
:102EF0004FF48060C5F8D011C5F8D4214FF40061BB
:102F00004FF40052C5F8DC3108BF4FF48073C5F8A8
:102F1000E821C5E9780100221448C5E97B32C5F8EB
:102F2000F42103F00DFB08B1FFBEFEE795F8302158
:102F3000D5F864110E48BDE8F84F02F0FDBD0A490E
:102F400009224FF48060C5F8D831C5E974124FF4F6
:102F500000614FF40052C5E97730C5E97912DAE72C
:102F600000200240C818062440000240981A062497
:102F7000341A0624704700BF10B592B0ADF80410A3
:102F80000180C9B2149C0B29C460C0E901233FD061
:102F900090F801C0BCF10F0F3AD8022A3FD0032AA3
:102FA00002D0012A00D000220E92012B02D0022B67
:102FB00018BF0023022C0F932CD0032C2AD0012CF5
:102FC00028D000230A29109327D85C4A02EB8122DB
:102FD00002610A2914D8DFE801F0A39587796B5DB7
:102FE0004F4133250600564BD3F8E01041F4806181
:102FF000C3F8E010D3F8E03003F480630C930C9B2B
:1030000001230DA9104603FA0CF30D9304F062F9A5
:1030100012B010BD0A291094D7D90022D8E7112286
:103020000E92C2E7464BD3F8E01041F40071C3F8AA
:10303000E010D3F8E03003F400730B930B9BDFE751
:103040003F4BD3F8E01041F48071C3F8E010D3F89F
:10305000E03003F480730A930A9BD1E7384BD3F82E
:10306000E01041F08001C3F8E010D3F8E03003F045
:1030700080030993099BC3E7314BD3F8E01041F07B
:103080004001C3F8E010D3F8E03003F040030893A8
:10309000089BB5E72A4BD3F8E01041F02001C3F8B4
:1030A000E010D3F8E03003F020030793079BA7E775
:1030B000234BD3F8E01041F01001C3F8E010D3F82F
:1030C000E03003F010030693069B99E71C4BD3F8FE
:1030D000E01041F00801C3F8E010D3F8E03003F04D
:1030E00008030593059B8BE7154BD3F8E01041F0DF
:1030F0000401C3F8E010D3F8E03003F004030493B4
:10310000049B7DE70E4BD3F8E01041F00201C3F8B9
:10311000E010D3F8E03003F002030393039B6FE762
:10312000074BD3F8E01041F00101C3F8E010D3F8E9
:10313000E03003F001030293029B61E700000258B4
:103140000044025808B5012143780069994089B2CA
:1031500004F0C8FA003818BF012008BD01230A4650
:103160004178006903FA01F189B204F0C1BA00BFE5
:103170008378022B30B504468FB037D0032B33D081
:10318000012B31D000230A93E378012B2AD0022BA4
:1031900028D000230B93002320460C9302F0F2F872
:1031A0000546204602F0F6F823780990082B13D83C
:1031B000DFE803F01F3245586B7E91A40500594BA0
:1031C000D3F8E02042F48072C3F8E020D3F8E03076
:1031D00003F480730893089B09A9284604F07AF841
:1031E0000FB030BD0B93D6E70A93CDE711230A93B6
:1031F000CAE74C4B09A92846D3F8E02042F0010267
:10320000C3F8E020D3F8E03003F001030093009B03
:1032100004F060F80FB030BD424B09A92846D3F83E
:10322000E02042F00202C3F8E020D3F8E03003F0DF
:1032300002030193019B04F04DF80FB030BD394BF0
:1032400009A92846D3F8E02042F00402C3F8E020A0
:10325000D3F8E03003F004030293029B04F03AF841
:103260000FB030BD2F4B09A92846D3F8E02042F01B
:103270000802C3F8E020D3F8E03003F0080303931A
:10328000039B04F027F80FB030BD264B09A9284650
:10329000D3F8E02042F01002C3F8E020D3F8E03089
:1032A00003F010030493049B04F014F80FB030BD36
:1032B0001C4B09A92846D3F8E02042F02002C3F8AD
:1032C000E020D3F8E03003F020030593059B04F0E1
:1032D00001F80FB030BD134B09A92846D3F8E02000
:1032E00042F04002C3F8E020D3F8E03003F040039E
:1032F0000693069B03F0EEFF0FB030BD094B09A902
:103300002846D3F8E02042F08002C3F8E020D3F84A
:10331000E03003F080030793079B03F0DBFF0FB05F
:1033200030BD00BF0044025838B5054602F02AF807
:103330000446284602F02EF801462046BDE83840F3
:1033400004F0D0B970B506460D4602F01BF80446ED
:10335000304602F01FF82A1E0146204618BF0122FF
:10336000BDE8704004F0C4B90023122270B586B0E5
:10337000CDE9022304930368032B01D804230593AA
:10338000061D841D304601F0FDFF0546304602F063
:1033900001F8034601A92846019303F09BFF20464C
:1033A00001F0F0FF034620461C4601F0F3FF01A99F
:1033B00003462046019303F08DFF06B070BD00BFA9
:1033C000634A0368934210B58CB028D0614A934297
:1033D00058D0614A934200F09480604A934201D0F1
:1033E0000CB010BD5E4C5F48D4F8E03043F00203EF
:1033F000C4F8E030D4F8E03003F002030A930A9BEB
:10340000FFF7B2FFD4F8F43043F08003C4F8F4308F
:10341000D4F8F43003F080030B930B9BE0E7504C9F
:103420005148D4F8E03043F00203C4F8E030D4F857
:10343000E03003F002030193019BFFF795FFD4F8FE
:10344000E83000221F2043F400131146C4F8E8308E
:10345000D4F8E83003F400130293029BD4F8D83078
:1034600043F00103C4F8D830D4F8D83003F0010396
:103470000393039B02F0B2FE1F200CB0BDE8104086
:1034800002F0EABE364C3948D4F8E03043F080030D
:10349000C4F8E030D4F8E03003F080030493049BD8
:1034A000D4F8E03043F00203C4F8E030D4F8E03060
:1034B00003F002030593059BFFF756FFD4F8E830AD
:1034C0000022212043F480031146C4F8E830D4F8E8
:1034D000E83003F480030693069BD4F8D83043F019
:1034E0000103C4F8D830D4F8D83003F001030793AF
:1034F000079B02F073FE21200CB0BDE8104002F0E3
:10350000ABBE1B48FFF730FF154B00224820D3F815
:10351000E840114644F40004C3F8E840D3F8E8401A
:1035200004F400040894089CD3F8D84044F0010443
:10353000C3F8D840D3F8D83003F001030993099BAE
:1035400002F04CFE48200CB0BDE8104002F084BEF2
:103550000054004000580040005C0040001C00582F
:1035600000440258A01D0624181B0624F01B062444
:10357000C81C06242DE9F0431A4B87B000254FF0F4
:1035800010099E46EC46184BFF22E04667461A702B
:103590000EF118060EF13004CDE90055CDE90255C3
:1035A000ADF80090BCE80F00CDE90455AEE80F007F
:1035B0009CE803000095ADF800908EE80300B8E8A1
:1035C0000F000FC69CE803000095ADF8009086E858
:1035D00003000FCF0FC49CE8030084E8030007B08A
:1035E000BDE8F08304000024141B062410B5EFF39B
:1035F000108472B6084B1A78120602D504B962B666
:1036000010BD1B78D82205485BB202FB03001430C2
:1036100003F00EFBF2E700BF141B0624181B062460
:10362000014804F0FDBE00BFA41B0624014804F0BD
:10363000F7BE00BF7C1C0624014804F0F1BE00BFA9
:10364000541D06242DE9F0430F68D8243F4D85B062
:1036500007FB04F4032F05EB0403036040DCCB6895
:103660000E46012B3CD84DD04FF0D808B646DFF8B7
:10367000FC9008FB0758BEE80F00C446ACE80F00FA
:10368000DEF800300DF1100ECCF80030D8F808C08C
:1036900099E80F000EE90F000EEB8703BCF1010F54
:1036A00053F8103CC8F88C3031D0BCF1020F42D036
:1036B000BCF1000F35D0317C8C34D823002201209E
:1036C0002C4403FB07534900C3E92602C3F89410B6
:1036D0002046C3E92822C3E92A2204F093FC18B14A
:1036E000012005B0BDE8F0830146204604F0A4FEA9
:1036F0000028F5D10146204604F0C8FE003818BF66
:103700000120EEE70B7C103B672BADD9E8E701F019
:103710001BF90F4B98420CBF0E4B0F4BC8F8903063
:10372000C9E701F011F90A4B98420CBF0B4B0C4B47
:10373000C8F89030BFE701F007F9054B98420CBF7D
:10374000084B094BC8F89030B5E700BF181B06249A
:10375000000E27072D0FB0303211D0205F4390604C
:103760008A62E030200BA0101A0980102C4E01084C
:103770002DE9F041D0F8008082B00D4617461E4674
:1037800008F18C04204604F053FE2028FAD1D8F822
:103790000C3073B96D002046089C33463A46A9B2F6
:1037A000009404F085FC003818BF012002B0BDE889
:1037B000F081089B32463946204604F04DFDF2E781
:1037C000044B10221A7483F8E82083F8C02183F890
:1037D00098227047181B062430B5002395B04FF48B
:1037E0008071062204460B9306921393CDE90C13C5
:1037F000CDE90E33CDE9113301F0A8F807282BD01D
:1038000004F1100541F2883206A9284605F090FD22
:1038100028B10123184684F85C3015B030BD02226F
:10382000022306A92846CDE9002310220123CDE971
:10383000022300224FF48003CDE9042305224FF038
:10384000807306926A460F9341F2883305F0DCFEDE
:103850000028DED115B030BD0323012084F85C3090
:1038600015B030BD0000000070B50023A4B04FF0CB
:1038700080724FF480750446ADF806300D93CDE9A3
:1038800010320122CDE90E53CDE91223CDE91433D4
:10389000002943D0F02300F1100508AEADF8063042
:1038A000C02341F2883231462846089305F040FD96
:1038B00028B10123184684F85C3024B070BD41F271
:1038C00088320DF10601284605F09CFD03460028CC
:1038D000EFD105224FF480711E93284616924FF0C7
:1038E00080721B9321931F9202AA9FED1F7BCDE94B
:1038F0001C13CDE922338DED027B9FED1D7B41F240
:10390000883316A98DED047B9FED1B7B8DED067B27
:1039100005F07AFE0028CCD124B070BD00F110056E
:1039200008AE612341F2883231462846089305F0FB
:10393000FFFC0028BDD141F288320DF10601284676
:1039400005F0DEFD0028B4D1BDF80630204623F096
:10395000780343F04003ADF80630FFF73DFF002841
:103960009ED0A6E7AFF30080000000000100000039
:1039700010000000010000000000000000004000F6
:103980002DE9F04F00234FF4807501264FF0807829
:1039900004462DED028BABB08DF8073013932193C5
:1039A000299314950E96CDF85C80CDE91533CDE9B9
:1039B0001863CDE91A33CDE92253CDE92433CDE99B
:1039C000273306231C9300F0C1FF072808D004F119
:1039D000100741F288321CA9384605F0A9FC40B115
:1039E0000123184684F85C302BB0BDEC028BBDE897
:1039F000F08F4FF0020A4FF0020B4FF0050941F231
:103A0000883308AA1CA93846CDF89480CDF8709068
:103A10009FED2D8BCDE908AB4FF0000A4FF4800BE2
:103A20008DED0A8BCDE90CAB05F0EEFD0028D7D16A
:103A300041F2883238460EA905F07AFC0028CFD131
:103A4000402341F288320DF1070138468DF80730E6
:103A500005F0D8FC0028C3D141F288330EA902AA90
:103A60003846CDF83890CDF85C809FED197B8DED10
:103A7000048BCDE906AB8DED027B05F0C5FD034659
:103A80000028ADD1CDF870904FF00109CDF89480A9
:103A90004FF00008219308AA29931CA938462295C3
:103AA000CDE92333CDE9273341F288338DED0A8BFD
:103AB000CDE90CABCDE9088905F0A6FD002893D02F
:103AC000304684F85C608FE71000000001000000C1
:103AD00040000000400000002DE9F043624CA3B01C
:103AE0000D46046000F032FF072800F0A980286826
:103AF00023466968AA6807C31E46AB8926F8043BBB
:103B00003046257B677B05F0F5FBE0B9574B012D6F
:103B10004FF00108E061236114BF4FF480134FF4AC
:103B20000003C4E9058893FAA3F3B3FA83F34FF4CF
:103B30008079013BC4F82490C4E90B00304623622D
:103B400005F06CFB38B10122134684F85C2018465E
:103B500023B0BDE8F08366230B90139041F28832C6
:103B600006A90693CDE90C90CDE90E00CDE9110030
:103B7000304605F0DDFB0028E5D1992341F288327B
:103B800006A93046069305F0D3FB0028DBD10523B8
:103B90001C9019906A4614934FF08073219014A9D9
:103BA0001D9341F288339FED2A7BCDE91A90CDE930
:103BB0001F008DED007B9FED287B30468DED027B55
:103BC0009FED277B8DED047B05F01EFD0028BAD10B
:103BD00029462046FFF748FE0028B4D12046FFF7CB
:103BE000CFFE03460028AED1002FB0D11893304647
:103BF0000027002606AA14A9CDF86890CDE91F3346
:103C0000EB2314934FF440631B934FF4005317932B
:103C10004FF440431C93A0231693062319934FF0AF
:103C2000805321934FF04073CDE906671D9305F053
:103C300063FD034600288AD0434684F85C8086E70B
:103C400001230322184684F85C2023B0BDE8F083EA
:103C50000000000001000000100000000100000052
:103C60000000000000004000781E062400500052B2
:103C70002DE9F04F8FB0414B0024026800AF9A420B
:103C80007C63C7E90944C7E90B4403D03C37BD4610
:103C9000BDE8F08F3A4B40F609213A48EB46D3F89D
:103CA000D42007F11C0607F1220A4FF0020942F462
:103CB00080424FF00308C3F8D420D3F8D42002F494
:103CC0008042BA60BA68D3F8E02042F04002C3F8FC
:103CD000E020D3F8E02002F04002FA60FA68D3F85E
:103CE000E02042F02002C3F8E020D3F8E02002F008
:103CF00020023A613A69D3F8E02042F01002C3F89A
:103D0000E020D3F8E02002F010027A617A69D3F85B
:103D1000E02042F00202C3F8E020D3F8E030F8617E
:103D200003F002033984BB61174B7B60BB697B687E
:103D300053F8040F7B6001F025FB7B68054618688B
:103D400001F028FB16F8013B786207F124012846B0
:103D5000C7F830807B63C7E90A9403F0BBFA564585
:103D6000E5D100225C20114602F038FA5C2002F016
:103D700073FA3C37DD46BD46BDE8F08F0050005277
:103D8000004402580A0A0909D41E0624114B02688D
:103D90009A4200D07047104A70B5D2F8D4300F4C18
:103DA00023F4804304F11806C2F8D43054F8040F09
:103DB00001F0E8FA0546206801F0ECFA01462846D1
:103DC00003F0C8FBB442F1D15C20BDE8704002F0C2
:103DD00051BA00BF0050005200440258D41E0624BD
:103DE000014805F015BD00BF881E0624084B1A1DAA
:103DF000981D03F1080110B49C1C9A6603F10A0295
:103E0000C3E91834C3E91B015DF8044B5A677047D6
:103E1000781E062438B5036871B9026A00F12805D6
:103E200000F5AC74012A0CBF002140218BBB1D4B57
:103E30005722C0F858310DE0426A00F1C00500F584
:103E4000E874012A0CBF00214021EBB1164B5A2225
:103E5000C0F8D03100232046C4E901214FF480523C
:103E60004FF48061636262614FF48042C4E90331C0
:103E70004FF48073C4E906234FF40033236202F049
:103E80005FFB58B1FFBEFEE7084B5822C0F8D031A7
:103E9000E0E7074B5922C0F85831DBE7C5E9204479
:103EA000A56338BD100002407000024028000240A7
:103EB000580002402DE9F043821D05468BB0031DDA
:103EC00005F10A010830CDE9052305F10C02AB69C3
:103ED000CDE907010992002B3DD0EB69B3FA83F8D5
:103EE0004FEA58180123022205AE0AAF4FF0060927
:103EF0000393CDE9012356F8044B2B7922789342A2
:103F000016D02B68F3B1012B02D1F2B10A2304932E
:103F1000204601F03FFA03462046009301F032FAB2
:103F2000694603F0D7F9BE42E5D10BB0BDE8F08396
:103F3000697963789942E4D1B8F1000FF3D02B6826
:103F4000002BE0D1CDF81090E2E76378022B14BF8C
:103F50000A230823DBE74FF00108C3E7534A03684D
:103F6000934230B505468BB055D02032934252D0A3
:103F70004F4A934204D02032934201D00BB030BD5F
:103F80004C4C4D48D4F8E03043F00103C4F8E03025
:103F9000D4F8E03003F001030593059BD4F8E0303A
:103FA00043F00803C4F8E030D4F8E03003F008032D
:103FB0000693069BD4F8E03043F04003C4F8E030A9
:103FC000D4F8E03003F040030793079BD4F8F030B7
:103FD00043F40003C4F8F030D4F8F03003F40003E5
:103FE0000893089BFFF766FFD4F8D830296843F0A0
:103FF00001032F4A3048C4F8D830891AD4F8D83091
:1040000018BF012103F001030993099B0BB0BDE820
:104010003040FFF7FFBE274C2848D4F8E03043F08B
:104020000103C4F8E030D4F8E03003F0010300935A
:10403000009BD4F8E03043F01003C4F8E030D4F82B
:10404000E03003F010030193019BD4F8E03043F01B
:104050004003C4F8E030D4F8E03003F040030293AA
:10406000029BD4F8F03043F48003C4F8F030D4F865
:10407000F03003F480030393039BFFF71BFFD4F896
:10408000D830296843F00103084A0C48C4F8D830F6
:10409000891AD4F8D83018BF012103F00103049322
:1040A000049B0BB0BDE83040FFF7B4BE045801409C
:1040B000045C0140004402584C210624F01E0624F2
:1040C000014802F0B5BD00BF48200624014802F0B7
:1040D000AFBD00BFC0200624014802F0A9BD00BF4B
:1040E000A4220624014802F0A3BD00BF1C2306241D
:1040F0001A4A0368934210B40BD02032934208D07E
:10410000174A934216D02032934213D05DF8044BE5
:104110007047144B0022D3F85442C3F85822002CA5
:10412000F4D0D3F84802D3E9931223465DF8044B48
:10413000520818470B4B0022D3F8B044C3F8B424FC
:10414000002CE3D0D3F8AC24D3F8A814D3F8A404FB
:10415000520823465DF8044B184700BF045801403D
:10416000045C0140F01E0624184A0368934210B410
:104170000BD02032934208D0154A934217D02032F8
:10418000934214D05DF8044B7047124BD3E994244A
:104190005208C3F85822002CF4D0D3E992012346E8
:1041A00001EB820100EB82005DF8044B1847094BDC
:1041B000D3F8AC24D3F8B0445208C3F8B424002C8C
:1041C000E0D0D3F8A814D3F8A404E8E704580140D9
:1041D000045C0140F01E06242DE9F04F0C684FF4FA
:1041E0001776754F87B004FB06F6012C07EB060A1D
:1041F000C0F800A000F3A0800D468E464FF00008E6
:10420000D44669A3D3E9002369A1D1E90001CDE92E
:10421000022306ABCAF8508203EB8403CDE9040104
:1042200053F810BC53F8083CCAE992880193BEE8E1
:104230000F00ACE80F00BEE80F00ACE80F00019BD8
:104240009EE80300CAF828B0CAF8C0308CE8030022
:104250002B69042B0CD8DFE803F0737D87910300F2
:104260004FF41773554A03FB04739A64C3F8E020B4
:10427000AA692B6A002A43D0002B4FF4177308BF9A
:10428000022203FB047318BF0322DA6201221A63BD
:10429000EA696B6A002A40D1191E4FF4177318BFE0
:1042A000012103FB0473C3E931126B69022B05D8AA
:1042B000434A12F80380434A52F823904FF417738D
:1042C00006F128004246494603FB047400233844A3
:1042D00063646363E365C4F8DC30C4F8CC30C4F8CD
:1042E000F430C4E90F33C4E91533C4E93533C4E904
:1042F0003B33022307F02EFB002849D0FFBEFEE728
:10430000191E4FF4177318BF012103FB0473C3E98F
:104310000B12EA696B6A002ABED0002B4FF41773A8
:1043200008BF022203FB047318BF0322C3F8C42092
:104330000122C3F8C820B8E7012007B0BDE8F08F1C
:104340004FF417734FF4FA5203FB04739A64C3F8E3
:10435000E0208DE74FF417734FF47A5203FB047398
:104360009A64C3F8E02083E74FF417734FF4FA42DE
:1043700003FB04739A64C3F8E02079E74FF41773E2
:104380004BF6803203FB04739A64C3F8E0206FE7B6
:1043900006F1C000022342464946384407F0DAFAE3
:1043A0000028CAD0FFBEFEE704580140045C01406B
:1043B00024580140245C0140F01E062400770100CF
:1043C000044F0108084F01080068704770B5046881
:1043D00082B015460E46C4F85032C4E99212069ACD
:1043E000C4F85422A269012A26D0626A012A9AB22C
:1043F00011D0294604F1C000019207F067FB236A3F
:10440000019A012B10D0294604F1280007F05EFB29
:10441000002002B070BD04F1C000019207F0E8FB7B
:10442000236A019A012BEED1314604F1280007F0EE
:10443000DFFB002002B070BD226A012A9AB211D0BF
:10444000294604F12800019207F040FB636A019AB3
:10445000012B10D0294604F1C00007F037FB0020E3
:1044600002B070BD04F12800019207F0C1FB636A3D
:10447000019A012BEED1314604F1C00007F0B8FBE0
:10448000002002B070BD00BF03681B69042B05D873
:10449000044A02EB830393ED000A70479FED020A82
:1044A000704700BF144F010800803B470368D3F8F2
:1044B00058027047704700BF08B501F073F8BDE8B7
:1044C000084001F053BF00BF064808B503680BB1B0
:1044D00003F012F9044803681BB1BDE8084004F07A
:1044E000B9B808BDC84D0624C0470624064808B51B
:1044F00003680BB103F000F9044803681BB1BDE881
:10450000084004F0A7B808BDC84D0624C0470624DB
:10451000064808B503680BB103F0EEF804480368D9
:104520001BB1BDE8084004F095B808BDC84D06248D
:10453000C0470624364BDA6A520062D59A6A9A6AF4
:104540009A6A9B6A180600D500BE314B9B6A990691
:1045500000D500BE2E4B9B6ADA0600D500BE2C4B60
:104560009B6A1B0700D500BE294B9B6A980700D5A4
:1045700000BE274B9B6AD90700D500BE244B9B6A1F
:104580001A0400D500BE224B9B6A9B0400D500BED6
:104590001F4B9B6AD80400D500BE1D4B9B6A1905B2
:1045A00000D500BE1A4B9B6A5A0500D500BE184BB9
:1045B0009B6A9B0500D500BE154B9B6AD80500D5AC
:1045C00000BE134B9B6A990100D500BE104B9B6A3D
:1045D000DA0100D500BE0E4B9B6A1B0300D500BE5E
:1045E0000B4B9B6A580300D500BE094B9B6A99038D
:1045F00000D500BE064B9B6ADA0306D400BE00BE9F
:10460000FEE7DB6A9B07FAD5F8E700BEF6E700BFD6
:1046100000ED00E000F0D8BF0A4B9B6803F178433F
:10462000B3F5003F0BD3084B986848B19868012850
:1046300006D09868022803D09B68032070470120A9
:10464000704700BF00ED00E0000080382DE9F04128
:10465000CEB004464C2200210AA80FF001FA202215
:10466000002102A80FF0FCF9BC2200211EA80FF0C7
:10467000F7F9022004F0EAFC2368012B4FF0000355
:1046800054D0534A02250193C820D16A514B21F0DE
:104690000101D162D26A02F0010201929A6942F4E8
:1046A00040429A619B6903F440430193019B494A4C
:1046B00093699B04FCD548490224002201268B6A99
:1046C00004274FF0080823F0030323438B620523DC
:1046D00016900AA818934FF48033109617941994E3
:1046E0001597CDF86880CDE91B222122CDE913442E
:1046F000CDE90A2305F094F900B1FEE73F22032338
:10470000294602A8CDE9022300220823CDE904238B
:1047100040224023CDE9062340234FF48062CDE9B7
:10472000082305F0ABFC0346B8B1FEE7294A04258F
:104730000093F0209169264B41F4404191619269C8
:1047400002F440420092DA6A42F00102DA62DB6A65
:1047500003F001030093009BA9E720224FF480514E
:1047600025934FF440152B9280222D931EA8309351
:10477000269135914FF48071249234920C22339417
:10478000439140F2271120921022CDF884802A977D
:104790001F96CDE92E34CDE93B334FF48033CDE97C
:1047A00022463193002446930623CDE93E452793C4
:1047B0004FF48063094C2C931E94CDE9281205F028
:1047C000B9FE00B1FEE704F067FC4EB0BDE8F08131
:1047D0000004005800480258004402580F130F0309
:1047E00070B584B0012401F06FFD4FF480764FF076
:1047F0004052194B68460025ADF800400396CDE9BC
:10480000012301F07FFD19224FF0404368468DF8E7
:10481000082001938DF80F40ADF80D608DF8014030
:104820008DF80A5001F06EFD02230B2268468DF8C8
:104830000F508DF801304FF062538DF8082001932E
:10484000ADF80D408DF80A4001F05CFD042001F048
:1048500049FD04B070BD00BF0E00010330B50D4628
:10486000044685B0D1E9000184E8030000F06AFE47
:10487000AB79A3B30BF0BCF9FEF77CFE09F022FE86
:104880000AF0AEFE2B798BBB6B799BB1BFF34F8FD8
:10489000BFF36F8F2A4B0022C3F85022BFF34F8F14
:1048A000BFF36F8F5A6942F400325A61BFF34F8FE2
:1048B000BFF36F8F4FF0FF320023002400256946BD
:1048C000204802928DF80C30CDE900450AF01AFA22
:1048D0001C480AF07FFA09F025FA05B030BD2046E1
:1048E000FFF7B4FE2046FFF77BFFC3E7144C00231D
:1048F000C4F88430BFF34F8FD4F8801043F6E07EC5
:10490000C1F34E3CC1F3C9014FEA4C1C0CEA0E0046
:104910000B4640EA8372013BC4F860225A1CF8D16E
:10492000ACF1200C1CF1200FF0D1BFF34F8F636965
:1049300043F480336361BFF34F8FBFF36F8FA3E7FF
:1049400000ED00E0A823062405F0C8BC1C4B9B68C2
:1049500003F17842B2F5003F25D3B3F5803F20D371
:1049600003F16042B2F5003F1FD303F15C42B2F5A0
:10497000002F1CD303F17042B2F5902F19D303F12D
:104980004842B2F5803F16D303F18042B2F1806F06
:1049900013D303F1E043B3F5000F2CBF0820072029
:1049A00070470120704700207047022070470320A5
:1049B000704704207047052070470620704700BFED
:1049C00000ED00E003480023034A044903600EF0B1
:1049D00027BD00BFA823062400000024B54400081A
:1049E00010B4204C0022204B83B0D4F888101F480C
:1049F00041F47001C4F8881019681D4C41F00101A0
:104A000019601A61196808401A4918609A61DA61D8
:104A10001A629A62DA621A635A639A63DA631A64F0
:104A20005A64186820F4802018601A66D3F8DC20D5
:104A300042F06042C3F8DC20D3F8DC300193019BE4
:104A400023681940B1F1005F03D20B4B0122C3F878
:104A50000821044B4FF000629A6003B05DF8044BEC
:104A6000704700BF00ED00E0004402587FEDF6EA19
:104A70000010005C0000FFFF00800051704700BF85
:104A80000020704770B50446074E0D46304621465B
:104A900008F05EFC304608F07DFC044B20462946B9
:104AA0001B689847002070BD88130624AC43062479
:104AB00070B50446074E0D463046214608F048FCC6
:104AC000304608F067FC044B204629461B6898478F
:104AD000002070BD24160624B04306240022094994
:104AE000094808B508F02AFC0849074808F030FCD6
:104AF000074B1A680AB1002008BD064A00201A6058
:104B000008BD00BFAC33062488130624AC2306245A
:104B1000AC4306247D4A000800220949094808B52B
:104B200008F00CFC0849074808F012FC074B1A680B
:104B30000AB1002008BD064A00201A6008BD00BF67
:104B4000AC3B062424160624AC2B0624B0430624D2
:104B50007D4A000820280AD0212806D1094B186870
:104B60009A889B7908608A808B7100207047054B7A
:104B70000868B1F804C08A7918600020A3F804C05E
:104B80009A7170477400002420280AD0212806D189
:104B9000094B18689A889B7908608A808B7100207D
:104BA0007047054B0868B1F804C08A791860002086
:104BB000A3F804C09A7170477C000024002070475D
:104BC00010B5094CD4F89032D3F814320BB101204F
:104BD00010BD0A460146204608F0B0FB2046BDE85D
:104BE000104008F0BDBB00BF881306244B4A036881
:104BF00030B593428BB04FF00004CDE90444CDE9C9
:104C00000644089404D0464A934249D00BB030BDC4
:104C1000444D4FF4C0524448D5F8E03043F001030E
:104C2000C5F8E030D5F8E03003F00103009302232B
:104C3000009904A9CDE904230A23089302F04AFB52
:104C40004FF40072002304A937480694CDE90423E9
:104C500002F040FBD5F8D8302246214643F00063ED
:104C60006220C5F8D830D5F8D83003F0006301933E
:104C7000019B01F0B3FA622001F0EEFA22462146D0
:104C8000632001F0ABFA632001F0E6FA22462146E8
:104C9000652001F0A3FA652001F0DEFA0BB030BD0B
:104CA000204D4FF4404204A9D5F8E03043F0020310
:104CB000C5F8E030D5F8E03003F002030293022398
:104CC00002981A48CDE904230C23089302F002FB52
:104CD000D5F8D830224621464A2043F00073C5F863
:104CE000D830D5F8D83003F000730393039B01F05C
:104CF00075FA4A2001F0B0FA224621464B2001F015
:104D00006DFA4B2001F0A8FA224621464D2001F011
:104D100065FA4D2001F0A0FA0BB030BD000008404C
:104D200000000440004402580000025800040258E9
:104D300000F57171D0F8040408F098BBC1EBC10311
:104D400000EB8303D0F80404D3F8082208F0BCBBBE
:104D5000C1EBC10300EB8303D0F804049A6C08F0A4
:104D6000F1BB00BFD0F8040408F090BCC16810B5D6
:104D7000044619B1022900D0FEE70121D4F8040449
:104D800008F06EFCD4F80404BDE8104008F040BC04
:104D900010B50446D0F8040408F066FC2268D2F886
:104DA000003E43F00103C2F8003E236A23B1034AE8
:104DB000136943F00603136110BD00BF00ED00E06E
:104DC000D0F8040408F05ABCD0F8040408F06EBC13
:104DD000D0F8040408F068BCD0F8040408F068BCFB
:104DE000D0F8040408F066BC70B5067804461EB11D
:104DF000012E30D0002070BD304D0923304AC5F857
:104E00000404C0F8985228462E612E63C5E9002399
:104E100002230222EB600023C5E9062300220023BF
:104E2000C5E9082301220123C5E90A2303F05AFB3F
:104E300000B1FEE78021284604F0E8F83146402220
:104E4000284604F0B9F880220121284604F0B4F87D
:104E50002678012ECED11B4D09221B4B00216A6002
:104E600002222B600223C5F804442846EB6000238D
:104E7000C4F898522961C5E9062300220023C5E938
:104E80000823C5E90C2301220023C5E90A2303F006
:104E900029FB044600B1FEE74FF40071284604F0F8
:104EA000B5F821468022284604F086F84FF4BA72FD
:104EB0003146284604F080F89CE700BFB84306243A
:104EC00000000840C047062400000440D0F89802C3
:104ED00008B503F09DFB032802D8024B185C08BDFF
:104EE000022008BD384F01089446D0F898021A46AF
:104EF00008B5634603F012FF032802D8024B185C82
:104F000008BD022008BD00BF384F0108D0F8980244
:104F100008B503F041FF032802D8024B185C08BD16
:104F2000022008BD384F0108D0F8980208B503F0F8
:104F3000C3FF032802D8024B185C08BD022008BD3D
:104F4000384F0108D0F8980208B503F0F9FF03289C
:104F500002D8024B185C08BD022008BD384F01087A
:104F60000A06D0F8983206D4C1EBC10103EB8101E7
:104F700091F8FE01704701F07F01C1EBC10103EB25
:104F8000810191F83E007047D0F8980208B503F00F
:104F9000AFFE032802D8024B185C08BD022008BDF2
:104FA000384F0108D0F8980208B503F05DFF0328D8
:104FB00002D8024B185C08BD022008BD384F01081A
:104FC000D0F8980208B503F01DFF032802D8024B61
:104FD000185C08BD022008BD384F0108D0F89802BF
:104FE00003F038BF122301480B807047D000002423
:104FF000122301480B807047BC00002404230148A1
:105000000B807047E400002410B5044C0A460448A5
:10501000214608F0CFFD204610BD00BFC84B062436
:105020003C4F010810B5044C0A460448214608F0DC
:10503000C1FD204610BD00BFC84B06244C4F0108DF
:1050400010B5044C0A460448214608F0B3FD20463A
:1050500010BD00BFC84B0624604F010810B5044CBA
:105060000A460448214608F0A5FD204610BD00BFB1
:10507000C84B06246C4F010810B5044C0A4604487E
:10508000214608F097FD204610BD00BFC84B0624FE
:105090007C4F0108042301480B807047E400002482
:1050A00010B5044C0A460448214608F083FD20460A
:1050B00010BD00BFC84B06243C4F0108464A4FF0C4
:1050C0001A0CD2F80008D2F80838A1F800C0C318AA
:1050D00001D142487047180FB3F1204FD2F804189D
:1050E0004FF0000C3D4A2CBF3730303082F803C0FF
:1050F0004FF0000C9070C3F3036082F805C04FF0CE
:10510000000C092882F807C04FF0000C8CBF373024
:10511000303082F809C04FF0000C1071C3F3035017
:1051200082F80BC04FF0000C092882F80DC08CBF2C
:10513000373030309071C3F3034009288CBF3730CB
:1051400030301072C3F3033009288CBF3730303051
:105150009072C3F3032009288CBF373030301073AE
:10516000C3F3031003F00F0309288CBF373030302E
:10517000092B90734FF0000094BF30333733B1F1F7
:10518000204FD07313744FEA11734FF000002CBFFF
:1051900037333033507400209374C1F30363D074F9
:1051A0000020092B50754FF000008CBF373330338F
:1051B000D0751375C1F303530848092B8CBF3733DF
:1051C00030339375C1F30343092B94BF3033373326
:1051D000137600235376704700E0F11FE8000024A7
:1051E000464A4FF01A0CD2F80008D2F80838A1F855
:1051F00000C0C31801D142487047180FB3F1204FC7
:10520000D2F804184FF0000C3D4A2CBF3730303034
:1052100082F803C04FF0000C9070C3F3036082F873
:1052200005C04FF0000C092882F807C04FF0000CB1
:105230008CBF3730303082F809C04FF0000C10714D
:10524000C3F3035082F80BC04FF0000C092882F81A
:105250000DC08CBF373030309071C3F30340092844
:105260008CBF373030301072C3F3033009288CBF45
:10527000373030309072C3F3032009288CBF3730A9
:1052800030301073C3F3031003F00F0309288CBFF1
:1052900037303030092B90734FF0000094BF30331B
:1052A0003733B1F1204FD07313744FEA11734FF0BD
:1052B00000002CBF37333033507400209374C1F397
:1052C0000363D0740020092B50754FF000008CBF91
:1052D00037333033D0751375C1F303530848092BA6
:1052E0008CBF373330339375C1F30343092B94BF1D
:1052F00030333733137600235376704700E0F11FC5
:10530000E800002410B5044C0A460448214608F081
:1053100051FC204610BD00BFC84B06246C4F01084D
:1053200010B5044C0A460448214608F043FC2046C8
:1053300010BD00BFC84B0624604F0108D0F8C00262
:1053400008F0AABCD0F8C00208F0BEBCD0F8C00279
:1053500008F0C6BC704700BFD0F8C00208F0ACBC73
:10536000D0F8C00208F0ACBCD0F8D00308B502F009
:1053700083FD032802D8024B185C08BD022008BD3B
:10538000904F0108024B027853F82200704700BF8B
:10539000B44F0108024B427833F81200704700BF47
:1053A000944F01088CB00A2814D8DFE800F01523C8
:1053B000313F4D5B6977859306004D4BD3F8E02074
:1053C00042F48062C3F8E020D3F8E03003F4806355
:1053D0000B930B9B0CB07047454BD3F8E02042F089
:1053E0000102C3F8E020D3F8E03003F00103019399
:1053F000019BEFE73E4BD3F8E02042F00202C3F8F6
:10540000E020D3F8E03003F002030293029BE1E7CF
:10541000374BD3F8E02042F00402C3F8E020D3F881
:10542000E03003F004030393039BD3E7304BD3F83E
:10543000E02042F00802C3F8E020D3F8E03003F0A7
:1054400008030493049BC5E7294BD3F8E02042F0FE
:105450001002C3F8E020D3F8E03003F01003059306
:10546000059BB7E7224BD3F8E02042F02002C3F8B7
:10547000E020D3F8E03003F020030693069BA9E771
:105480001B4BD3F8E02042F04002C3F8E020D3F8F1
:10549000E03003F040030793079B9BE7144BD3F8DE
:1054A000E02042F08002C3F8E020D3F8E03003F0BF
:1054B00080030893089B8DE70D4BD3F8E02042F45E
:1054C0008072C3F8E020D3F8E03003F480730993CE
:1054D000099B7FE7064BD3F8E02042F40072C3F843
:1054E000E020D3F8E03003F400730A930A9B71E7DD
:1054F00000440258704700BF0F4B1B780BB90120C6
:10550000704710B504464FF47A700C4AB0FBF3F3C1
:105510001068B0FBF3F000F0C1FE0F2C00D808B10A
:10552000012010BD002221464FF0FF3000F056FE52
:10553000034B00201C6010BD020100244C0000241D
:105540000401002438B50320124D00F035FE124C42
:1055500004F0F4FC114A12499369C3F30323CB5CB2
:1055600003F01F0320FA03F30E202B60926902F070
:105570000F028A5C02F01F02D3402360FFF7BCFFDA
:1055800010B10124204638BD0446FFF7B3FF204682
:1055900038BD00BF4C0000245000002400440258D5
:1055A000284F0108034A044B11681B780B44136011
:1055B000704700BF8C50062402010024014B18687C
:1055C000704700BF8C50062438B50446FFF7F6FF3D
:1055D0000546631C02D0044B1B781C44FFF7EEFF0A
:1055E000431BA342FAD338BD02010024014B1868C3
:1055F000000C70470010005C704700BF806B08B55E
:10560000FFF7FAFF08BD00BF836B5A6D12F0500F11
:105610005A6D10B51DD1196842F400725A650A68B6
:1056200012F0080FCA681BD012F4406F0DD1CA687F
:1056300094040AD45A6D22F480725A655A6DD104CA
:1056400003D45A6D42F001025A651846FDF7EEFB8D
:1056500010BDD2060AD4DB6CBDE81040DB6C1847E5
:105660009007E7D01846FDF7E1FBF1E71846FDF794
:1056700081FC10BD806B08B5436D43F0400343656A
:10568000836D43F004038365FDF774FC08BD00BF20
:10569000F0B5002283B0019290F85020012A00F06A
:1056A0001C81034601201A6883F85000946864073F
:1056B00000F18A800C68C4F31305002D40F08F8040
:1056C000C4F38464A0404D684FF01F0ED6694FEAC2
:1056D000951C30430CF00C0CD06105F01F0002F15A
:1056E000300584400EFA00FE5CF8050020EA0E004A
:1056F00004434CF80540906840076ED4956815F057
:10570000080547D10C68072002F11406B94F4FEA8B
:10571000D45CC4F304540CF0040C00FA04FE886852
:1057200000FA04F45CF8060020EA0E0020434CF86E
:105730000600386800F07040B0F1805F00F0C5806E
:10574000D068D668C70600F1E880C6F382064869CB
:10575000760000FA06F60F69042F00F0C18002F10E
:105760006004086854F827C000F0F8400CF0004CC2
:1057700040EA0C00304344F82700487E0E690128B7
:1057800054F8260008BF4FF0004520F000400543C4
:1057900044F826509068C40714D4CE68086806F010
:1057A0001807954CD2F8C050FC40C0F313070440D2
:1057B00025EA07052C43C2F8C040904CA64246D0CB
:1057C000002816DB002003E05A6D42F020025A65E3
:1057D000002283F8502003B0F0BD9068DAE794FA15
:1057E000A4F5B5FA85F5C4F3846405F01F05A84057
:1057F00069E783498A4200F0B68001F580718A42E8
:1058000000F0B1807F4D804CA968A46801F0E0767B
:10581000E44304F00104002C00F0B4807B4CA0426F
:1058200000F0FC807A4CA04200F01A81794CA04232
:10583000C8D14902C6D474498A42C3D1AA6800209B
:1058400022F0E072324342F48002AA60C0E7002FE7
:105850006AD090FAA0F4B4FA84F4013404F01F047E
:10586000092C00F2A48090FAA0F4B4FA84F490FA1F
:10587000A0F5B5FA85F5013401260135A40605F039
:105880001F0504F0F84406FA05F52C4390FAA0F041
:10589000B0FA80F0304400F01F0000EB400000053B
:1058A0002043C60D02F11405C0F30450072406F08E
:1058B000040604FA00F7745924EA07048F6807FA0B
:1058C00000F02043705108687AE7D6684869C6F34B
:1058D0008206760000FA06F63DE7022003B0F0BD2E
:1058E000106E0C6800F0F840A506B0EB846F30D065
:1058F000506E00F0F840854226D0906E00F0F840DF
:1059000085422BD0D06E00F0F84085427FF442AF44
:10591000D06E20F00040D0663CE77608486906F07B
:10592000080600FA06F616E7800E441C04F01F066F
:10593000092E2DD8A406012004F0F844B0400443F9
:1059400006EB46000005ABE7506E20F000405066C5
:10595000D3E7106E20F000401066C9E7906E20F08B
:1059600000409066CEE7264C2B4D04F58074A96864
:1059700054F8F86CA468344301F0E076E44304F092
:10598000010448E75A6D012042F020025A651FE7E2
:1059900006EB4600A50601241E3805F0F84504FA7A
:1059A00006F60005354340F00070284379E790FA89
:1059B000A0F5B5FA85F590FAA0F4B4FA84F40135AF
:1059C00001260134AD0604F01F0405F0F84506FA7F
:1059D00004F4254390FAA0F4B4FA84F4344404F0B7
:1059E0001F0404EB4404A4F11E00000540F0007005
:1059F000DBE700BF0010005CFFFF0F000000FF4767
:105A0000002002400063025800600258000084CB6E
:105A1000000052C70000B8CF0023024008023FF543
:105A2000D1AE17498A427FF4CDAE164AA9681268F2
:105A3000154821F0E07192093143A0FB020241F4C4
:105A400000019209A96052000192019A002A3FF4D4
:105A5000B9AE019A013A0192019A002AF9D1B1E650
:105A600011F080707FF4AEAE05498A427FF4AAAE91
:105A7000AA6822F0E072324342F08072AA60A7E680
:105A8000006002584C000024632D3E0503689A68AC
:105A9000D20701D5002070479968214A114270B59C
:105AA000044608D0636D012043F010036365A36DC5
:105AB0000343A36570BD99681A4A0A4042F0010287
:105AC0009A60FFF77BFD2368174A054693421ED074
:105AD00002F5807293421AD0144A9268114E0AE07D
